{
  "contractName": "EducationPlatform",
  "abi": [
    {
      "anonymous": false,
      "inputs": [
        {
          "indexed": false,
          "internalType": "string",
          "name": "_courseName",
          "type": "string"
        },
        {
          "indexed": false,
          "internalType": "uint256",
          "name": "cost",
          "type": "uint256"
        },
        {
          "indexed": false,
          "internalType": "uint256",
          "name": "_seatsAvailable",
          "type": "uint256"
        },
        {
          "indexed": false,
          "internalType": "uint256",
          "name": "courseId",
          "type": "uint256"
        }
      ],
      "name": "LogCourseAdded",
      "type": "event"
    },
    {
      "anonymous": false,
      "inputs": [
        {
          "indexed": false,
          "internalType": "string",
          "name": "name",
          "type": "string"
        },
        {
          "indexed": false,
          "internalType": "string",
          "name": "desc",
          "type": "string"
        },
        {
          "indexed": false,
          "internalType": "uint256",
          "name": "universityId",
          "type": "uint256"
        }
      ],
      "name": "LogUniversityAdded",
      "type": "event"
    },
    {
      "anonymous": false,
      "inputs": [
        {
          "indexed": true,
          "internalType": "address",
          "name": "previousOwner",
          "type": "address"
        },
        {
          "indexed": true,
          "internalType": "address",
          "name": "newOwner",
          "type": "address"
        }
      ],
      "name": "OwnershipTransferred",
      "type": "event"
    },
    {
      "constant": true,
      "inputs": [],
      "name": "isOwner",
      "outputs": [
        {
          "internalType": "bool",
          "name": "",
          "type": "bool"
        }
      ],
      "payable": false,
      "stateMutability": "view",
      "type": "function"
    },
    {
      "constant": true,
      "inputs": [],
      "name": "owner",
      "outputs": [
        {
          "internalType": "address",
          "name": "",
          "type": "address"
        }
      ],
      "payable": false,
      "stateMutability": "view",
      "type": "function"
    },
    {
      "constant": false,
      "inputs": [],
      "name": "renounceOwnership",
      "outputs": [],
      "payable": false,
      "stateMutability": "nonpayable",
      "type": "function"
    },
    {
      "constant": false,
      "inputs": [
        {
          "internalType": "address",
          "name": "newOwner",
          "type": "address"
        }
      ],
      "name": "transferOwnership",
      "outputs": [],
      "payable": false,
      "stateMutability": "nonpayable",
      "type": "function"
    },
    {
      "constant": true,
      "inputs": [
        {
          "internalType": "uint256",
          "name": "",
          "type": "uint256"
        }
      ],
      "name": "universities",
      "outputs": [
        {
          "internalType": "string",
          "name": "name",
          "type": "string"
        },
        {
          "internalType": "string",
          "name": "description",
          "type": "string"
        },
        {
          "internalType": "string",
          "name": "website",
          "type": "string"
        },
        {
          "internalType": "string",
          "name": "phoneNumber",
          "type": "string"
        },
        {
          "internalType": "bool",
          "name": "open",
          "type": "bool"
        },
        {
          "internalType": "uint256",
          "name": "memberIdGenerator",
          "type": "uint256"
        },
        {
          "internalType": "uint256",
          "name": "courseIdGenerator",
          "type": "uint256"
        },
        {
          "internalType": "address",
          "name": "Universityowner",
          "type": "address"
        }
      ],
      "payable": false,
      "stateMutability": "view",
      "type": "function"
    },
    {
      "constant": true,
      "inputs": [],
      "name": "universityIdGenerator",
      "outputs": [
        {
          "internalType": "uint256",
          "name": "",
          "type": "uint256"
        }
      ],
      "payable": false,
      "stateMutability": "view",
      "type": "function"
    },
    {
      "constant": false,
      "inputs": [
        {
          "internalType": "string",
          "name": "_name",
          "type": "string"
        },
        {
          "internalType": "string",
          "name": "_description",
          "type": "string"
        },
        {
          "internalType": "string",
          "name": "_website",
          "type": "string"
        },
        {
          "internalType": "string",
          "name": "_phoneNumber",
          "type": "string"
        }
      ],
      "name": "addUniversity",
      "outputs": [],
      "payable": false,
      "stateMutability": "nonpayable",
      "type": "function"
    },
    {
      "constant": false,
      "inputs": [
        {
          "internalType": "uint256",
          "name": "_universityId",
          "type": "uint256"
        },
        {
          "internalType": "string",
          "name": "_courseName",
          "type": "string"
        },
        {
          "internalType": "uint256",
          "name": "_cost",
          "type": "uint256"
        },
        {
          "internalType": "uint256",
          "name": "_seatsAvailable",
          "type": "uint256"
        }
      ],
      "name": "addCourse",
      "outputs": [
        {
          "internalType": "bool",
          "name": "",
          "type": "bool"
        }
      ],
      "payable": false,
      "stateMutability": "nonpayable",
      "type": "function"
    },
    {
      "constant": false,
      "inputs": [
        {
          "internalType": "uint256",
          "name": "_universityId",
          "type": "uint256"
        },
        {
          "internalType": "uint256",
          "name": "_courseId",
          "type": "uint256"
        },
        {
          "internalType": "string",
          "name": "_courseName",
          "type": "string"
        },
        {
          "internalType": "uint256",
          "name": "_cost",
          "type": "uint256"
        },
        {
          "internalType": "uint256",
          "name": "_seatsAvailable",
          "type": "uint256"
        },
        {
          "internalType": "bool",
          "name": "_isActive",
          "type": "bool"
        }
      ],
      "name": "updateCourse",
      "outputs": [
        {
          "internalType": "bool",
          "name": "",
          "type": "bool"
        }
      ],
      "payable": false,
      "stateMutability": "nonpayable",
      "type": "function"
    },
    {
      "constant": true,
      "inputs": [
        {
          "internalType": "uint256",
          "name": "_uniId",
          "type": "uint256"
        }
      ],
      "name": "getUniversity",
      "outputs": [
        {
          "internalType": "string",
          "name": "name",
          "type": "string"
        },
        {
          "internalType": "string",
          "name": "description",
          "type": "string"
        },
        {
          "internalType": "string",
          "name": "website",
          "type": "string"
        }
      ],
      "payable": false,
      "stateMutability": "view",
      "type": "function"
    },
    {
      "constant": false,
      "inputs": [
        {
          "internalType": "address",
          "name": "_ownerAddr",
          "type": "address"
        },
        {
          "internalType": "uint256",
          "name": "_universityId",
          "type": "uint256"
        }
      ],
      "name": "setUniversityOwner",
      "outputs": [],
      "payable": false,
      "stateMutability": "nonpayable",
      "type": "function"
    },
    {
      "constant": false,
      "inputs": [
        {
          "internalType": "address",
          "name": "_ownerAddr",
          "type": "address"
        },
        {
          "internalType": "string",
          "name": "_fullName",
          "type": "string"
        },
        {
          "internalType": "string",
          "name": "_email",
          "type": "string"
        },
        {
          "internalType": "uint256",
          "name": "universityId",
          "type": "uint256"
        }
      ],
      "name": "addUniversityOwnerRoles",
      "outputs": [],
      "payable": false,
      "stateMutability": "nonpayable",
      "type": "function"
    },
    {
      "constant": false,
      "inputs": [
        {
          "internalType": "address",
          "name": "_addr",
          "type": "address"
        },
        {
          "internalType": "string",
          "name": "_name",
          "type": "string"
        },
        {
          "internalType": "string",
          "name": "_email",
          "type": "string"
        },
        {
          "internalType": "bool",
          "name": "_isUniversityOwner",
          "type": "bool"
        }
      ],
      "name": "addPlatformMember",
      "outputs": [
        {
          "internalType": "bool",
          "name": "",
          "type": "bool"
        }
      ],
      "payable": false,
      "stateMutability": "nonpayable",
      "type": "function"
    },
    {
      "constant": false,
      "inputs": [
        {
          "internalType": "address",
          "name": "_addr",
          "type": "address"
        },
        {
          "internalType": "string",
          "name": "_name",
          "type": "string"
        },
        {
          "internalType": "string",
          "name": "_email",
          "type": "string"
        },
        {
          "internalType": "uint256",
          "name": "_universityId",
          "type": "uint256"
        },
        {
          "internalType": "string",
          "name": "_memberRole",
          "type": "string"
        }
      ],
      "name": "addUniversityMember",
      "outputs": [
        {
          "internalType": "bool",
          "name": "",
          "type": "bool"
        }
      ],
      "payable": false,
      "stateMutability": "nonpayable",
      "type": "function"
    }
  ],
  "bytecode": "0x60806040526100126100d260201b60201c565b6000806101000a81548173ffffffffffffffffffffffffffffffffffffffff021916908373ffffffffffffffffffffffffffffffffffffffff1602179055506000809054906101000a900473ffffffffffffffffffffffffffffffffffffffff1673ffffffffffffffffffffffffffffffffffffffff16600073ffffffffffffffffffffffffffffffffffffffff167f8be0079c531659141344cd1fd0a4f28419497f9722a3daafe3b4186f6b6457e060405160405180910390a36100da565b600033905090565b612f43806100e96000396000f3fe608060405234801561001057600080fd5b50600436106100ea5760003560e01c80638da5cb5b1161008c578063b28064d811610066578063b28064d814610a4c578063c99086d014610ccc578063f178019414610e4b578063f2fde38b14610f3c576100ea565b80638da5cb5b146107a95780638f32d59b146107f35780639c38f65f14610815576100ea565b80634d375d4f116100c85780634d375d4f1461041f578063569fccaf1461046d578063715018a6146106985780637b195fef146106a2576100ea565b8063155d89e7146100ef5780631f0ac6da1461028557806326ff987214610401575b600080fd5b61026b6004803603608081101561010557600080fd5b81019080803573ffffffffffffffffffffffffffffffffffffffff1690602001909291908035906020019064010000000081111561014257600080fd5b82018360208201111561015457600080fd5b8035906020019184600183028401116401000000008311171561017657600080fd5b91908080601f016020809104026020016040519081016040528093929190818152602001838380828437600081840152601f19601f820116905080830192505050505050509192919290803590602001906401000000008111156101d957600080fd5b8201836020820111156101eb57600080fd5b8035906020019184600183028401116401000000008311171561020d57600080fd5b91908080601f016020809104026020016040519081016040528093929190818152602001838380828437600081840152601f19601f820116905080830192505050505050509192919290803515159060200190929190505050610f80565b604051808215151515815260200191505060405180910390f35b6103ff6004803603608081101561029b57600080fd5b81019080803573ffffffffffffffffffffffffffffffffffffffff169060200190929190803590602001906401000000008111156102d857600080fd5b8201836020820111156102ea57600080fd5b8035906020019184600183028401116401000000008311171561030c57600080fd5b91908080601f016020809104026020016040519081016040528093929190818152602001838380828437600081840152601f19601f8201169050808301925050505050505091929192908035906020019064010000000081111561036f57600080fd5b82018360208201111561038157600080fd5b803590602001918460018302840111640100000000831117156103a357600080fd5b91908080601f016020809104026020016040519081016040528093929190818152602001838380828437600081840152601f19601f8201169050808301925050505050505091929192908035906020019092919050505061114b565b005b610409611393565b6040518082815260200191505060405180910390f35b61046b6004803603604081101561043557600080fd5b81019080803573ffffffffffffffffffffffffffffffffffffffff16906020019092919080359060200190929190505050611399565b005b61067e600480360360a081101561048357600080fd5b81019080803573ffffffffffffffffffffffffffffffffffffffff169060200190929190803590602001906401000000008111156104c057600080fd5b8201836020820111156104d257600080fd5b803590602001918460018302840111640100000000831117156104f457600080fd5b91908080601f016020809104026020016040519081016040528093929190818152602001838380828437600081840152601f19601f8201169050808301925050505050505091929192908035906020019064010000000081111561055757600080fd5b82018360208201111561056957600080fd5b8035906020019184600183028401116401000000008311171561058b57600080fd5b91908080601f016020809104026020016040519081016040528093929190818152602001838380828437600081840152601f19601f82011690508083019250505050505050919291929080359060200190929190803590602001906401000000008111156105f857600080fd5b82018360208201111561060a57600080fd5b8035906020019184600183028401116401000000008311171561062c57600080fd5b91908080601f016020809104026020016040519081016040528093929190818152602001838380828437600081840152601f19601f82011690508083019250505050505050919291929050505061155f565b604051808215151515815260200191505060405180910390f35b6106a0611aa4565b005b61078f600480360360c08110156106b857600080fd5b810190808035906020019092919080359060200190929190803590602001906401000000008111156106e957600080fd5b8201836020820111156106fb57600080fd5b8035906020019184600183028401116401000000008311171561071d57600080fd5b91908080601f016020809104026020016040519081016040528093929190818152602001838380828437600081840152601f19601f8201169050808301925050505050505091929192908035906020019092919080359060200190929190803515159060200190929190505050611bdd565b604051808215151515815260200191505060405180910390f35b6107b1611dd4565b604051808273ffffffffffffffffffffffffffffffffffffffff1673ffffffffffffffffffffffffffffffffffffffff16815260200191505060405180910390f35b6107fb611dfd565b604051808215151515815260200191505060405180910390f35b6108416004803603602081101561082b57600080fd5b8101908080359060200190929190505050611e5b565b6040518080602001806020018060200180602001891515151581526020018881526020018781526020018673ffffffffffffffffffffffffffffffffffffffff1673ffffffffffffffffffffffffffffffffffffffff16815260200185810385528d818151815260200191508051906020019080838360005b838110156108d55780820151818401526020810190506108ba565b50505050905090810190601f1680156109025780820380516001836020036101000a031916815260200191505b5085810384528c818151815260200191508051906020019080838360005b8381101561093b578082015181840152602081019050610920565b50505050905090810190601f1680156109685780820380516001836020036101000a031916815260200191505b5085810383528b818151815260200191508051906020019080838360005b838110156109a1578082015181840152602081019050610986565b50505050905090810190601f1680156109ce5780820380516001836020036101000a031916815260200191505b5085810382528a818151815260200191508051906020019080838360005b83811015610a075780820151818401526020810190506109ec565b50505050905090810190601f168015610a345780820380516001836020036101000a031916815260200191505b509c5050505050505050505050505060405180910390f35b610cca60048036036080811015610a6257600080fd5b8101908080359060200190640100000000811115610a7f57600080fd5b820183602082011115610a9157600080fd5b80359060200191846001830284011164010000000083111715610ab357600080fd5b91908080601f016020809104026020016040519081016040528093929190818152602001838380828437600081840152601f19601f82011690508083019250505050505050919291929080359060200190640100000000811115610b1657600080fd5b820183602082011115610b2857600080fd5b80359060200191846001830284011164010000000083111715610b4a57600080fd5b91908080601f016020809104026020016040519081016040528093929190818152602001838380828437600081840152601f19601f82011690508083019250505050505050919291929080359060200190640100000000811115610bad57600080fd5b820183602082011115610bbf57600080fd5b80359060200191846001830284011164010000000083111715610be157600080fd5b91908080601f016020809104026020016040519081016040528093929190818152602001838380828437600081840152601f19601f82011690508083019250505050505050919291929080359060200190640100000000811115610c4457600080fd5b820183602082011115610c5657600080fd5b80359060200191846001830284011164010000000083111715610c7857600080fd5b91908080601f016020809104026020016040519081016040528093929190818152602001838380828437600081840152601f19601f820116905080830192505050505050509192919290505050612130565b005b610cf860048036036020811015610ce257600080fd5b810190808035906020019092919050505061241a565b60405180806020018060200180602001848103845287818151815260200191508051906020019080838360005b83811015610d40578082015181840152602081019050610d25565b50505050905090810190601f168015610d6d5780820380516001836020036101000a031916815260200191505b50848103835286818151815260200191508051906020019080838360005b83811015610da6578082015181840152602081019050610d8b565b50505050905090810190601f168015610dd35780820380516001836020036101000a031916815260200191505b50848103825285818151815260200191508051906020019080838360005b83811015610e0c578082015181840152602081019050610df1565b50505050905090810190601f168015610e395780820380516001836020036101000a031916815260200191505b50965050505050505060405180910390f35b610f2260048036036080811015610e6157600080fd5b810190808035906020019092919080359060200190640100000000811115610e8857600080fd5b820183602082011115610e9a57600080fd5b80359060200191846001830284011164010000000083111715610ebc57600080fd5b91908080601f016020809104026020016040519081016040528093929190818152602001838380828437600081840152601f19601f8201169050808301925050505050505091929192908035906020019092919080359060200190929190505050612642565b604051808215151515815260200191505060405180910390f35b610f7e60048036036020811015610f5257600080fd5b81019080803573ffffffffffffffffffffffffffffffffffffffff169060200190929190505050612938565b005b600084600073ffffffffffffffffffffffffffffffffffffffff168173ffffffffffffffffffffffffffffffffffffffff161415611009576040517f08c379a0000000000000000000000000000000000000000000000000000000008152600401808060200182810382526022815260200180612e4b6022913960400191505060405180910390fd5b611011612cc3565b858160000181905250848160200181905250600554816040018181525050831561105f576110498760016129be90919063ffffffff16565b6001816060019015159081151581525050611085565b6110738760036129be90919063ffffffff16565b60008160600190151590811515815250505b80600760008973ffffffffffffffffffffffffffffffffffffffff1673ffffffffffffffffffffffffffffffffffffffff16815260200190815260200160002060008201518160000190805190602001906110e1929190612ced565b5060208201518160010190805190602001906110fe929190612ced565b506040820151816002015560608201518160030160006101000a81548160ff0219169083151502179055509050506001600560008282540192505081905550600192505050949350505050565b611153611dfd565b6111c5576040517f08c379a00000000000000000000000000000000000000000000000000000000081526004018080602001828103825260208152602001807f4f776e61626c653a2063616c6c6572206973206e6f7420746865206f776e657281525060200191505060405180910390fd5b83600073ffffffffffffffffffffffffffffffffffffffff168173ffffffffffffffffffffffffffffffffffffffff16141561124c576040517f08c379a0000000000000000000000000000000000000000000000000000000008152600401808060200182810382526022815260200180612e4b6022913960400191505060405180910390fd5b6112608560016129be90919063ffffffff16565b611268612d6d565b84816000018190525083816020018190525060018160600190151590811515815250506006600084815260200190815260200160002060050154816040018181525050806006600085815260200190815260200160002060080160008873ffffffffffffffffffffffffffffffffffffffff1673ffffffffffffffffffffffffffffffffffffffff168152602001908152602001600020600082015181600001908051906020019061131b929190612ced565b506020820151816001019080519060200190611338929190612ced565b506040820151816002015560608201518160030160006101000a81548160ff02191690831515021790555090505060016006600085815260200190815260200160002060050160008282540192505081905550505050505050565b60045481565b6113a1611dfd565b611413576040517f08c379a00000000000000000000000000000000000000000000000000000000081526004018080602001828103825260208152602001807f4f776e61626c653a2063616c6c6572206973206e6f7420746865206f776e657281525060200191505060405180910390fd5b81611428336001612a9990919063ffffffff16565b61147d576040517f08c379a0000000000000000000000000000000000000000000000000000000008152600401808060200182810382526023815260200180612e936023913960400191505060405180910390fd5b82600073ffffffffffffffffffffffffffffffffffffffff168173ffffffffffffffffffffffffffffffffffffffff161415611504576040517f08c379a0000000000000000000000000000000000000000000000000000000008152600401808060200182810382526022815260200180612e4b6022913960400191505060405180910390fd5b836006600085815260200190815260200160002060070160006101000a81548173ffffffffffffffffffffffffffffffffffffffff021916908373ffffffffffffffffffffffffffffffffffffffff16021790555050505050565b600085600073ffffffffffffffffffffffffffffffffffffffff168173ffffffffffffffffffffffffffffffffffffffff1614156115e8576040517f08c379a0000000000000000000000000000000000000000000000000000000008152600401808060200182810382526022815260200180612e4b6022913960400191505060405180910390fd5b83600115156006600083815260200190815260200160002060080160003373ffffffffffffffffffffffffffffffffffffffff1673ffffffffffffffffffffffffffffffffffffffff16815260200190815260200160002060030160009054906101000a900460ff161515146116a9576040517f08c379a0000000000000000000000000000000000000000000000000000000008152600401808060200182810382526037815260200180612ed86037913960400191505060405180910390fd5b6116bd336001612a9990919063ffffffff16565b611712576040517f08c379a0000000000000000000000000000000000000000000000000000000008152600401808060200182810382526023815260200180612e936023913960400191505060405180910390fd5b61171a612d6d565b87816000018190525086816020018190525060066000878152602001908152602001600020600501548160400181815250506001600660008881526020019081526020016000206005016000828254019250508190555060405160200180807f7465616368657200000000000000000000000000000000000000000000000000815250600701905060405160208183030381529060405280519060200120856040516020018082805190602001908083835b602083106117ef57805182526020820191506020810190506020830392506117cc565b6001836020036101000a038019825116818451168082178552505050505050905001915050604051602081830303815290604052805190602001201415611904576118448960026129be90919063ffffffff16565b806006600088815260200190815260200160002060090160008b73ffffffffffffffffffffffffffffffffffffffff1673ffffffffffffffffffffffffffffffffffffffff16815260200190815260200160002060008201518160000190805190602001906118b4929190612ced565b5060208201518160010190805190602001906118d1929190612ced565b506040820151816002015560608201518160030160006101000a81548160ff021916908315150217905550905050611a94565b60405160200180807f73747564656e7400000000000000000000000000000000000000000000000000815250600701905060405160208183030381529060405280519060200120856040516020018082805190602001908083835b60208310611982578051825260208201915060208101905060208303925061195f565b6001836020036101000a038019825116818451168082178552505050505050905001915050604051602081830303815290604052805190602001201415611a93576119d78960036129be90919063ffffffff16565b8060066000888152602001908152602001600020600a0160008b73ffffffffffffffffffffffffffffffffffffffff1673ffffffffffffffffffffffffffffffffffffffff1681526020019081526020016000206000820151816000019080519060200190611a47929190612ced565b506020820151816001019080519060200190611a64929190612ced565b506040820151816002015560608201518160030160006101000a81548160ff0219169083151502179055509050505b5b6001935050505095945050505050565b611aac611dfd565b611b1e576040517f08c379a00000000000000000000000000000000000000000000000000000000081526004018080602001828103825260208152602001807f4f776e61626c653a2063616c6c6572206973206e6f7420746865206f776e657281525060200191505060405180910390fd5b600073ffffffffffffffffffffffffffffffffffffffff166000809054906101000a900473ffffffffffffffffffffffffffffffffffffffff1673ffffffffffffffffffffffffffffffffffffffff167f8be0079c531659141344cd1fd0a4f28419497f9722a3daafe3b4186f6b6457e060405160405180910390a360008060006101000a81548173ffffffffffffffffffffffffffffffffffffffff021916908373ffffffffffffffffffffffffffffffffffffffff160217905550565b600086600115156006600083815260200190815260200160002060080160003373ffffffffffffffffffffffffffffffffffffffff1673ffffffffffffffffffffffffffffffffffffffff16815260200190815260200160002060030160009054906101000a900460ff16151514611ca0576040517f08c379a0000000000000000000000000000000000000000000000000000000008152600401808060200182810382526037815260200180612ed86037913960400191505060405180910390fd5b611cb4336001612a9990919063ffffffff16565b611d09576040517f08c379a0000000000000000000000000000000000000000000000000000000008152600401808060200182810382526023815260200180612e936023913960400191505060405180910390fd5b611d11612d97565b86816000018190525084816080018181525050858160200181815250508381604001901515908115158152505080600660008b8152602001908152602001600020600b0160008a81526020019081526020016000206000820151816000019080519060200190611d82929190612ced565b506020820151816001015560408201518160020160006101000a81548160ff02191690831515021790555060608201518160030155608082015181600401559050506001925050509695505050505050565b60008060009054906101000a900473ffffffffffffffffffffffffffffffffffffffff16905090565b60008060009054906101000a900473ffffffffffffffffffffffffffffffffffffffff1673ffffffffffffffffffffffffffffffffffffffff16611e3f612b77565b73ffffffffffffffffffffffffffffffffffffffff1614905090565b6006602052806000526040600020600091509050806000018054600181600116156101000203166002900480601f016020809104026020016040519081016040528092919081815260200182805460018160011615610100020316600290048015611f075780601f10611edc57610100808354040283529160200191611f07565b820191906000526020600020905b815481529060010190602001808311611eea57829003601f168201915b505050505090806001018054600181600116156101000203166002900480601f016020809104026020016040519081016040528092919081815260200182805460018160011615610100020316600290048015611fa55780601f10611f7a57610100808354040283529160200191611fa5565b820191906000526020600020905b815481529060010190602001808311611f8857829003601f168201915b505050505090806002018054600181600116156101000203166002900480601f0160208091040260200160405190810160405280929190818152602001828054600181600116156101000203166002900480156120435780601f1061201857610100808354040283529160200191612043565b820191906000526020600020905b81548152906001019060200180831161202657829003601f168201915b505050505090806003018054600181600116156101000203166002900480601f0160208091040260200160405190810160405280929190818152602001828054600181600116156101000203166002900480156120e15780601f106120b6576101008083540402835291602001916120e1565b820191906000526020600020905b8154815290600101906020018083116120c457829003601f168201915b5050505050908060040160009054906101000a900460ff16908060050154908060060154908060070160009054906101000a900473ffffffffffffffffffffffffffffffffffffffff16905088565b612138611dfd565b6121aa576040517f08c379a00000000000000000000000000000000000000000000000000000000081526004018080602001828103825260208152602001807f4f776e61626c653a2063616c6c6572206973206e6f7420746865206f776e657281525060200191505060405180910390fd5b6121b2612dc8565b8481600001819052508381602001819052508281604001819052508181606001819052506001816080019015159081151581525050806006600060045481526020019081526020016000206000820151816000019080519060200190612219929190612ced565b506020820151816001019080519060200190612236929190612ced565b506040820151816002019080519060200190612253929190612ced565b506060820151816003019080519060200190612270929190612ced565b5060808201518160040160006101000a81548160ff02191690831515021790555060a0820151816005015560c0820151816006015560e08201518160070160006101000a81548173ffffffffffffffffffffffffffffffffffffffff021916908373ffffffffffffffffffffffffffffffffffffffff16021790555090505060016004600082825401925050819055507f17bd20564888962589be0906f760255071a0c85d66584f4e1f6489591c14f83c8585600454604051808060200180602001848152602001838103835286818151815260200191508051906020019080838360005b83811015612370578082015181840152602081019050612355565b50505050905090810190601f16801561239d5780820380516001836020036101000a031916815260200191505b50838103825285818151815260200191508051906020019080838360005b838110156123d65780820151818401526020810190506123bb565b50505050905090810190601f1680156124035780820380516001836020036101000a031916815260200191505b509550505050505060405180910390a15050505050565b6060806060600660008581526020019081526020016000206000018054600181600116156101000203166002900480601f0160208091040260200160405190810160405280929190818152602001828054600181600116156101000203166002900480156124c95780601f1061249e576101008083540402835291602001916124c9565b820191906000526020600020905b8154815290600101906020018083116124ac57829003601f168201915b50505050509250600660008581526020019081526020016000206002018054600181600116156101000203166002900480601f01602080910402602001604051908101604052809291908181526020018280546001816001161561010002031660029004801561257a5780601f1061254f5761010080835404028352916020019161257a565b820191906000526020600020905b81548152906001019060200180831161255d57829003601f168201915b50505050509050600660008581526020019081526020016000206001018054600181600116156101000203166002900480601f01602080910402602001604051908101604052809291908181526020018280546001816001161561010002031660029004801561262b5780601f106126005761010080835404028352916020019161262b565b820191906000526020600020905b81548152906001019060200180831161260e57829003601f168201915b505050505091508282829250925092509193909250565b600084600115156006600083815260200190815260200160002060080160003373ffffffffffffffffffffffffffffffffffffffff1673ffffffffffffffffffffffffffffffffffffffff16815260200190815260200160002060030160009054906101000a900460ff16151514612705576040517f08c379a0000000000000000000000000000000000000000000000000000000008152600401808060200182810382526037815260200180612ed86037913960400191505060405180910390fd5b612719336001612a9990919063ffffffff16565b61276e576040517f08c379a0000000000000000000000000000000000000000000000000000000008152600401808060200182810382526023815260200180612e936023913960400191505060405180910390fd5b612776612d97565b85816000018190525083816080018181525050848160200181815250506001816040019015159081151581525050600081606001818152505060006006600089815260200190815260200160002060060154905081600660008a8152602001908152602001600020600b016000838152602001908152602001600020600082015181600001908051906020019061280e929190612ced565b506020820151816001015560408201518160020160006101000a81548160ff02191690831515021790555060608201518160030155608082015181600401559050506001600660008a8152602001908152602001600020600601600082825401925050819055507f89f4edc142d57c1d29965512cac1cbfe9541efa20ff153a28760f1b5829acf0d878787846040518080602001858152602001848152602001838152602001828103825286818151815260200191508051906020019080838360005b838110156128ec5780820151818401526020810190506128d1565b50505050905090810190601f1680156129195780820380516001836020036101000a031916815260200191505b509550505050505060405180910390a160019350505050949350505050565b612940611dfd565b6129b2576040517f08c379a00000000000000000000000000000000000000000000000000000000081526004018080602001828103825260208152602001807f4f776e61626c653a2063616c6c6572206973206e6f7420746865206f776e657281525060200191505060405180910390fd5b6129bb81612b7f565b50565b6129c88282612a99565b15612a3b576040517f08c379a000000000000000000000000000000000000000000000000000000000815260040180806020018281038252601f8152602001807f526f6c65733a206163636f756e7420616c72656164792068617320726f6c650081525060200191505060405180910390fd5b60018260000160008373ffffffffffffffffffffffffffffffffffffffff1673ffffffffffffffffffffffffffffffffffffffff16815260200190815260200160002060006101000a81548160ff0219169083151502179055505050565b60008073ffffffffffffffffffffffffffffffffffffffff168273ffffffffffffffffffffffffffffffffffffffff161415612b20576040517f08c379a0000000000000000000000000000000000000000000000000000000008152600401808060200182810382526022815260200180612eb66022913960400191505060405180910390fd5b8260000160008373ffffffffffffffffffffffffffffffffffffffff1673ffffffffffffffffffffffffffffffffffffffff16815260200190815260200160002060009054906101000a900460ff16905092915050565b600033905090565b600073ffffffffffffffffffffffffffffffffffffffff168173ffffffffffffffffffffffffffffffffffffffff161415612c05576040517f08c379a0000000000000000000000000000000000000000000000000000000008152600401808060200182810382526026815260200180612e6d6026913960400191505060405180910390fd5b8073ffffffffffffffffffffffffffffffffffffffff166000809054906101000a900473ffffffffffffffffffffffffffffffffffffffff1673ffffffffffffffffffffffffffffffffffffffff167f8be0079c531659141344cd1fd0a4f28419497f9722a3daafe3b4186f6b6457e060405160405180910390a3806000806101000a81548173ffffffffffffffffffffffffffffffffffffffff021916908373ffffffffffffffffffffffffffffffffffffffff16021790555050565b60405180608001604052806060815260200160608152602001600081526020016000151581525090565b828054600181600116156101000203166002900490600052602060002090601f016020900481019282601f10612d2e57805160ff1916838001178555612d5c565b82800160010185558215612d5c579182015b82811115612d5b578251825591602001919060010190612d40565b5b509050612d699190612e25565b5090565b60405180608001604052806060815260200160608152602001600081526020016000151581525090565b6040518060a00160405280606081526020016000815260200160001515815260200160008152602001600081525090565b604051806101000160405280606081526020016060815260200160608152602001606081526020016000151581526020016000815260200160008152602001600073ffffffffffffffffffffffffffffffffffffffff1681525090565b612e4791905b80821115612e43576000816000905550600101612e2b565b5090565b9056fe414444524553532043414e4e4f5420424520544845205a45524f20414444524553534f776e61626c653a206e6577206f776e657220697320746865207a65726f2061646472657373444f4553204e4f54204841564520554e4956455253495459204f574e455220524f4c45526f6c65733a206163636f756e7420697320746865207a65726f2061646472657373444f4553204e4f542042454c4f4e4720544f2054484520554e4956455253495459204f574e455253204f5220495320494e414354495645a265627a7a723158205b615c9e7a0e4a84d864964333ed97099ed3f795b902b10834628f96f4fd9a2064736f6c634300050c0032",
  "source": "pragma solidity ^0.5.0;\r\n\r\nimport \"openzeppelin-solidity/contracts/access/Roles.sol\";\r\nimport \"openzeppelin-solidity/contracts/ownership/Ownable.sol\";\r\n\r\n/*\r\nTo use with Remix:\r\nimport \"github.com/OpenZeppelin/openzeppelin-solidity/contracts/access/Roles.sol\";\r\nimport \"github.com/OpenZeppelin/zeppelin-solidity/contracts/ownership/Ownable.sol\";\r\n*/\r\n\r\ncontract EducationPlatform is Ownable {\r\n\r\n    using Roles for Roles.Role; // We want to use the Roles library\r\n    Roles.Role universityOwners; //Stores University owner Roles\r\n    Roles.Role teachers; // Stores teacher Roles\r\n    Roles.Role students; // Stores student Roles;\r\n\r\n    uint public universityIdGenerator;\r\n    uint UserIdGenerator;\r\n    mapping (uint => University) public universities; // Mapping to keep track of the Universities\r\n    mapping (address => PlatformMember) platformUsers; // Mapping to keep track of the Students in the platform\r\n\r\n    struct University {\r\n        string name;\r\n        string description;\r\n        string website;\r\n        string phoneNumber;\r\n        bool open;\r\n        uint memberIdGenerator;\r\n        uint courseIdGenerator;\r\n        address Universityowner;\r\n        mapping (address => UniversityMember) owners;\r\n        mapping (address => UniversityMember) teachers;\r\n        mapping (address => UniversityMember) students;\r\n\r\n        mapping (uint => Course) courses; //Mappint to track all classes available for this University\r\n    }\r\n\r\n    // This structs is to store the information of a Platform member. Has a flag to identify if the member is Owner or not.\r\n    struct PlatformMember {\r\n        string fullName;\r\n        string email;\r\n        uint id;\r\n        bool isUniversityOwner;\r\n    }\r\n\r\n    struct UniversityMember {\r\n        string fullName;\r\n        string email;\r\n        uint id;\r\n        bool active;\r\n    }\r\n\r\n    struct Course {\r\n        string courseName;\r\n        uint cost;\r\n        bool active;\r\n        uint activeStudents;\r\n        uint seatsAvailable; //to simulate a student buying multiple seats for a course\r\n        mapping (uint => address) students; //Keeps a list of enrolled students in case we need to send a bulk msg.\r\n    }\r\n\r\n\r\n    // Events\r\n    event LogUniversityAdded(string name, string desc, uint universityId);\r\n    event LogCourseAdded(string _courseName, uint cost, uint _seatsAvailable, uint courseId);\r\n\r\n    // Modifiers\r\n    modifier validAddress(address _address) {\r\n        require(_address != address(0), \"ADDRESS CANNOT BE THE ZERO ADDRESS\");\r\n        _;\r\n    }\r\n\r\n    modifier isUniversityOwner(address _addr) {\r\n        require(universityOwners.has(msg.sender), \"DOES NOT HAVE UNIVERSITY OWNER ROLE\");\r\n        _;\r\n    }\r\n\r\n    modifier ownerAtUniversity(uint _universityId) {\r\n        require((universities[_universityId].owners[msg.sender].active == true), \"DOES NOT BELONG TO THE UNIVERSITY OWNERS OR IS INACTIVE\");\r\n        require(universityOwners.has(msg.sender), \"DOES NOT HAVE UNIVERSITY OWNER ROLE\");\r\n        _;\r\n    }\r\n\r\n    modifier courseIsActive(uint _universityId, uint _courseId) {\r\n        require((universities[_universityId].courses[_courseId].active == true), \"COURSE IS INACTIVE - CONTACT UNIVERSITY OWNER\");\r\n        _;\r\n    }\r\n\r\n    // Add Universities\r\n    function addUniversity(string memory _name, string memory _description, string memory _website, string memory _phoneNumber)\r\n    public onlyOwner\r\n    {\r\n        University memory newUniversity;\r\n        newUniversity.name = _name;\r\n        newUniversity.description = _description;\r\n        newUniversity.website = _website;\r\n        newUniversity.phoneNumber = _phoneNumber;\r\n        newUniversity.open = true;\r\n        universities[universityIdGenerator] = newUniversity;\r\n        universityIdGenerator += 1;\r\n\r\n        emit LogUniversityAdded(_name, _description, universityIdGenerator);\r\n    }\r\n\r\n    // Add a Course\r\n    function addCourse(uint _universityId, string memory _courseName, uint _cost, uint _seatsAvailable) public\r\n    ownerAtUniversity(_universityId)\r\n    returns (bool)\r\n    {\r\n        Course memory newCourse;\r\n        newCourse.courseName = _courseName;\r\n        newCourse.seatsAvailable = _seatsAvailable;\r\n        newCourse.cost = _cost;\r\n        newCourse.active = true;\r\n        newCourse.activeStudents = 0;\r\n\r\n        uint courseId = universities[_universityId].courseIdGenerator;\r\n        universities[_universityId].courses[courseId] = newCourse;\r\n        universities[_universityId].courseIdGenerator += 1;\r\n\r\n        emit LogCourseAdded(_courseName, _cost, _seatsAvailable, courseId);\r\n        return true;\r\n    }\r\n\r\n\r\n    // Modify a Course\r\n    function updateCourse(uint _universityId, uint _courseId, string memory _courseName, uint _cost, uint _seatsAvailable, bool _isActive)\r\n    public\r\n    ownerAtUniversity(_universityId)\r\n    returns (bool)\r\n    {\r\n        Course memory newCourse;\r\n        newCourse.courseName = _courseName;\r\n        newCourse.seatsAvailable = _seatsAvailable;\r\n        newCourse.cost = _cost;\r\n        newCourse.active = _isActive;\r\n        universities[_universityId].courses[_courseId] = newCourse;\r\n        return true;\r\n    }\r\n\r\n\r\n    // Get University details\r\n    function getUniversity(uint _uniId)\r\n    public view\r\n    returns (string memory name, string memory description, string memory website)\r\n    {\r\n        name = universities[_uniId].name;\r\n        website = universities[_uniId].website;\r\n        description = universities[_uniId].description;\r\n        return (name, description, website);\r\n    }\r\n\r\n    /*\r\n    Roles and membership\r\n    */\r\n\r\n    function setUniversityOwner(address _ownerAddr, uint _universityId)\r\n    public onlyOwner\r\n    isUniversityOwner(_ownerAddr)\r\n    validAddress(_ownerAddr)\r\n    {\r\n        universities[_universityId].Universityowner = _ownerAddr;\r\n    }\r\n\r\n    function addUniversityOwnerRoles(address _ownerAddr, string memory _fullName, string memory _email, uint universityId)\r\n    public onlyOwner\r\n    validAddress(_ownerAddr)\r\n    {\r\n        universityOwners.add(_ownerAddr);\r\n\r\n        UniversityMember memory newUniversityMember;\r\n        newUniversityMember.fullName = _fullName;\r\n        newUniversityMember.email = _email;\r\n        newUniversityMember.active = true;\r\n        newUniversityMember.id = universities[universityId].memberIdGenerator;\r\n        universities[universityId].owners[_ownerAddr] = newUniversityMember;\r\n\r\n        universities[universityId].memberIdGenerator += 1;\r\n    }\r\n\r\n\r\n    // Registers a new user into the Platform - Owner or Student\r\n    function addPlatformMember(address _addr, string memory _name, string memory _email, bool _isUniversityOwner) public\r\n    validAddress(_addr)\r\n    returns (bool)\r\n    {\r\n        PlatformMember memory newPlatformMember;\r\n        newPlatformMember.fullName = _name;\r\n        newPlatformMember.email = _email;\r\n        newPlatformMember.id = UserIdGenerator;\r\n\r\n        if (_isUniversityOwner) {\r\n            universityOwners.add(_addr);\r\n            newPlatformMember.isUniversityOwner = true;\r\n        }\r\n        else {\r\n            students.add(_addr);\r\n            newPlatformMember.isUniversityOwner = false;\r\n        }\r\n\r\n        platformUsers[_addr] = newPlatformMember;\r\n        UserIdGenerator += 1;\r\n        return true;\r\n    }\r\n\r\n    function addUniversityMember(address _addr, string memory _name, string memory _email, uint _universityId, string memory _memberRole) public\r\n    validAddress(_addr)\r\n    ownerAtUniversity(_universityId)\r\n    returns (bool)\r\n    {\r\n        UniversityMember memory newUniversityMember;\r\n        newUniversityMember.fullName = _name;\r\n        newUniversityMember.email = _email;\r\n        newUniversityMember.id = universities[_universityId].memberIdGenerator;\r\n        universities[_universityId].memberIdGenerator += 1;\r\n\r\n        if (keccak256(abi.encodePacked(_memberRole)) == keccak256(abi.encodePacked(\"teacher\")))\r\n        {\r\n            teachers.add(_addr);\r\n            universities[_universityId].teachers[_addr] = newUniversityMember;\r\n        }\r\n        else if (keccak256(abi.encodePacked(_memberRole)) == keccak256(abi.encodePacked(\"student\")))\r\n        {\r\n            students.add(_addr);\r\n            universities[_universityId].students[_addr] = newUniversityMember;\r\n        }\r\n\r\n        return true;\r\n    }\r\n\r\n}",
  "sourcePath": "G:/Personal/ConsenSys/FinalProject/Test4/contracts/EducationPlatform.sol",
  "compiler": {
    "name": "solc",
    "version": "0.5.12+commit.7709ece9.Emscripten.clang"
  },
  "schemaVersion": "3.0.19",
  "updatedAt": "2019-11-25T19:52:30.539Z",
  "devdoc": {
    "methods": {
      "isOwner()": {
        "details": "Returns true if the caller is the current owner."
      },
      "owner()": {
        "details": "Returns the address of the current owner."
      },
      "renounceOwnership()": {
        "details": "Leaves the contract without owner. It will not be possible to call `onlyOwner` functions anymore. Can only be called by the current owner.     * NOTE: Renouncing ownership will leave the contract without an owner, thereby removing any functionality that is only available to the owner."
      },
      "transferOwnership(address)": {
        "details": "Transfers ownership of the contract to a new account (`newOwner`). Can only be called by the current owner."
      }
    }
  },
  "userdoc": {
    "methods": {}
  }
}