{
  "contractName": "EducationPlatform",
  "abi": [
    {
      "anonymous": false,
      "inputs": [
        {
          "indexed": false,
          "internalType": "string",
          "name": "_courseName",
          "type": "string"
        },
        {
          "indexed": false,
          "internalType": "uint256",
          "name": "cost",
          "type": "uint256"
        },
        {
          "indexed": false,
          "internalType": "uint256",
          "name": "_seatsAvailable",
          "type": "uint256"
        },
        {
          "indexed": false,
          "internalType": "uint256",
          "name": "courseId",
          "type": "uint256"
        }
      ],
      "name": "LogCourseAdded",
      "type": "event"
    },
    {
      "anonymous": false,
      "inputs": [
        {
          "indexed": false,
          "internalType": "string",
          "name": "name",
          "type": "string"
        },
        {
          "indexed": false,
          "internalType": "string",
          "name": "desc",
          "type": "string"
        },
        {
          "indexed": false,
          "internalType": "uint256",
          "name": "universityId",
          "type": "uint256"
        }
      ],
      "name": "LogUniversityAdded",
      "type": "event"
    },
    {
      "anonymous": false,
      "inputs": [
        {
          "indexed": true,
          "internalType": "address",
          "name": "previousOwner",
          "type": "address"
        },
        {
          "indexed": true,
          "internalType": "address",
          "name": "newOwner",
          "type": "address"
        }
      ],
      "name": "OwnershipTransferred",
      "type": "event"
    },
    {
      "constant": true,
      "inputs": [],
      "name": "isOwner",
      "outputs": [
        {
          "internalType": "bool",
          "name": "",
          "type": "bool"
        }
      ],
      "payable": false,
      "stateMutability": "view",
      "type": "function"
    },
    {
      "constant": true,
      "inputs": [],
      "name": "owner",
      "outputs": [
        {
          "internalType": "address",
          "name": "",
          "type": "address"
        }
      ],
      "payable": false,
      "stateMutability": "view",
      "type": "function"
    },
    {
      "constant": false,
      "inputs": [],
      "name": "renounceOwnership",
      "outputs": [],
      "payable": false,
      "stateMutability": "nonpayable",
      "type": "function"
    },
    {
      "constant": false,
      "inputs": [
        {
          "internalType": "address",
          "name": "newOwner",
          "type": "address"
        }
      ],
      "name": "transferOwnership",
      "outputs": [],
      "payable": false,
      "stateMutability": "nonpayable",
      "type": "function"
    },
    {
      "constant": true,
      "inputs": [
        {
          "internalType": "uint256",
          "name": "",
          "type": "uint256"
        }
      ],
      "name": "universities",
      "outputs": [
        {
          "internalType": "string",
          "name": "name",
          "type": "string"
        },
        {
          "internalType": "string",
          "name": "description",
          "type": "string"
        },
        {
          "internalType": "string",
          "name": "website",
          "type": "string"
        },
        {
          "internalType": "string",
          "name": "phoneNumber",
          "type": "string"
        },
        {
          "internalType": "bool",
          "name": "open",
          "type": "bool"
        },
        {
          "internalType": "uint256",
          "name": "memberIdGenerator",
          "type": "uint256"
        },
        {
          "internalType": "uint256",
          "name": "courseIdGenerator",
          "type": "uint256"
        }
      ],
      "payable": false,
      "stateMutability": "view",
      "type": "function"
    },
    {
      "constant": true,
      "inputs": [],
      "name": "universityIdGenerator",
      "outputs": [
        {
          "internalType": "uint256",
          "name": "",
          "type": "uint256"
        }
      ],
      "payable": false,
      "stateMutability": "view",
      "type": "function"
    },
    {
      "constant": false,
      "inputs": [
        {
          "internalType": "string",
          "name": "_name",
          "type": "string"
        },
        {
          "internalType": "string",
          "name": "_description",
          "type": "string"
        },
        {
          "internalType": "string",
          "name": "_website",
          "type": "string"
        },
        {
          "internalType": "string",
          "name": "_phoneNumber",
          "type": "string"
        }
      ],
      "name": "addUniversity",
      "outputs": [],
      "payable": false,
      "stateMutability": "nonpayable",
      "type": "function"
    },
    {
      "constant": false,
      "inputs": [
        {
          "internalType": "uint256",
          "name": "_universityId",
          "type": "uint256"
        },
        {
          "internalType": "string",
          "name": "_courseName",
          "type": "string"
        },
        {
          "internalType": "uint256",
          "name": "_cost",
          "type": "uint256"
        },
        {
          "internalType": "uint256",
          "name": "_seatsAvailable",
          "type": "uint256"
        }
      ],
      "name": "addCourse",
      "outputs": [
        {
          "internalType": "bool",
          "name": "",
          "type": "bool"
        }
      ],
      "payable": false,
      "stateMutability": "nonpayable",
      "type": "function"
    },
    {
      "constant": false,
      "inputs": [
        {
          "internalType": "uint256",
          "name": "_universityId",
          "type": "uint256"
        },
        {
          "internalType": "uint256",
          "name": "_courseId",
          "type": "uint256"
        },
        {
          "internalType": "string",
          "name": "_courseName",
          "type": "string"
        },
        {
          "internalType": "uint256",
          "name": "_cost",
          "type": "uint256"
        },
        {
          "internalType": "uint256",
          "name": "_seatsAvailable",
          "type": "uint256"
        },
        {
          "internalType": "bool",
          "name": "_isActive",
          "type": "bool"
        }
      ],
      "name": "updateCourse",
      "outputs": [
        {
          "internalType": "bool",
          "name": "",
          "type": "bool"
        }
      ],
      "payable": false,
      "stateMutability": "nonpayable",
      "type": "function"
    },
    {
      "constant": true,
      "inputs": [
        {
          "internalType": "uint256",
          "name": "_uniId",
          "type": "uint256"
        }
      ],
      "name": "getUniversity",
      "outputs": [
        {
          "internalType": "string",
          "name": "name",
          "type": "string"
        },
        {
          "internalType": "string",
          "name": "description",
          "type": "string"
        },
        {
          "internalType": "string",
          "name": "website",
          "type": "string"
        }
      ],
      "payable": false,
      "stateMutability": "view",
      "type": "function"
    },
    {
      "constant": false,
      "inputs": [
        {
          "internalType": "address",
          "name": "_ownerAddr",
          "type": "address"
        },
        {
          "internalType": "string",
          "name": "_fullName",
          "type": "string"
        },
        {
          "internalType": "string",
          "name": "_email",
          "type": "string"
        },
        {
          "internalType": "uint256",
          "name": "universityId",
          "type": "uint256"
        }
      ],
      "name": "addUniversityOwnerRoles",
      "outputs": [],
      "payable": false,
      "stateMutability": "nonpayable",
      "type": "function"
    },
    {
      "constant": false,
      "inputs": [
        {
          "internalType": "address",
          "name": "_addr",
          "type": "address"
        },
        {
          "internalType": "string",
          "name": "_name",
          "type": "string"
        },
        {
          "internalType": "string",
          "name": "_email",
          "type": "string"
        },
        {
          "internalType": "uint256",
          "name": "_universityId",
          "type": "uint256"
        },
        {
          "internalType": "string",
          "name": "_memberRole",
          "type": "string"
        }
      ],
      "name": "addUniversityMember",
      "outputs": [
        {
          "internalType": "bool",
          "name": "",
          "type": "bool"
        }
      ],
      "payable": false,
      "stateMutability": "nonpayable",
      "type": "function"
    }
  ],
  "bytecode": "0x60806040526100126100d260201b60201c565b6000806101000a81548173ffffffffffffffffffffffffffffffffffffffff021916908373ffffffffffffffffffffffffffffffffffffffff1602179055506000809054906101000a900473ffffffffffffffffffffffffffffffffffffffff1673ffffffffffffffffffffffffffffffffffffffff16600073ffffffffffffffffffffffffffffffffffffffff167f8be0079c531659141344cd1fd0a4f28419497f9722a3daafe3b4186f6b6457e060405160405180910390a36100da565b600033905090565b6128b0806100e96000396000f3fe608060405234801561001057600080fd5b50600436106100b45760003560e01c80638f32d59b116100715780638f32d59b146105d95780639c38f65f146105fb578063b28064d8146107ff578063c99086d014610a7f578063f178019414610bfe578063f2fde38b14610cef576100b4565b80631f0ac6da146100b957806326ff987214610235578063569fccaf14610253578063715018a61461047e5780637b195fef146104885780638da5cb5b1461058f575b600080fd5b610233600480360360808110156100cf57600080fd5b81019080803573ffffffffffffffffffffffffffffffffffffffff1690602001909291908035906020019064010000000081111561010c57600080fd5b82018360208201111561011e57600080fd5b8035906020019184600183028401116401000000008311171561014057600080fd5b91908080601f016020809104026020016040519081016040528093929190818152602001838380828437600081840152601f19601f820116905080830192505050505050509192919290803590602001906401000000008111156101a357600080fd5b8201836020820111156101b557600080fd5b803590602001918460018302840111640100000000831117156101d757600080fd5b91908080601f016020809104026020016040519081016040528093929190818152602001838380828437600081840152601f19601f82011690508083019250505050505050919291929080359060200190929190505050610d33565b005b61023d610f7b565b6040518082815260200191505060405180910390f35b610464600480360360a081101561026957600080fd5b81019080803573ffffffffffffffffffffffffffffffffffffffff169060200190929190803590602001906401000000008111156102a657600080fd5b8201836020820111156102b857600080fd5b803590602001918460018302840111640100000000831117156102da57600080fd5b91908080601f016020809104026020016040519081016040528093929190818152602001838380828437600081840152601f19601f8201169050808301925050505050505091929192908035906020019064010000000081111561033d57600080fd5b82018360208201111561034f57600080fd5b8035906020019184600183028401116401000000008311171561037157600080fd5b91908080601f016020809104026020016040519081016040528093929190818152602001838380828437600081840152601f19601f82011690508083019250505050505050919291929080359060200190929190803590602001906401000000008111156103de57600080fd5b8201836020820111156103f057600080fd5b8035906020019184600183028401116401000000008311171561041257600080fd5b91908080601f016020809104026020016040519081016040528093929190818152602001838380828437600081840152601f19601f820116905080830192505050505050509192919290505050610f81565b604051808215151515815260200191505060405180910390f35b6104866114c6565b005b610575600480360360c081101561049e57600080fd5b810190808035906020019092919080359060200190929190803590602001906401000000008111156104cf57600080fd5b8201836020820111156104e157600080fd5b8035906020019184600183028401116401000000008311171561050357600080fd5b91908080601f016020809104026020016040519081016040528093929190818152602001838380828437600081840152601f19601f82011690508083019250505050505050919291929080359060200190929190803590602001909291908035151590602001909291905050506115ff565b604051808215151515815260200191505060405180910390f35b6105976117f6565b604051808273ffffffffffffffffffffffffffffffffffffffff1673ffffffffffffffffffffffffffffffffffffffff16815260200191505060405180910390f35b6105e161181f565b604051808215151515815260200191505060405180910390f35b6106276004803603602081101561061157600080fd5b810190808035906020019092919050505061187d565b60405180806020018060200180602001806020018815151515815260200187815260200186815260200185810385528c818151815260200191508051906020019080838360005b8381101561068957808201518184015260208101905061066e565b50505050905090810190601f1680156106b65780820380516001836020036101000a031916815260200191505b5085810384528b818151815260200191508051906020019080838360005b838110156106ef5780820151818401526020810190506106d4565b50505050905090810190601f16801561071c5780820380516001836020036101000a031916815260200191505b5085810383528a818151815260200191508051906020019080838360005b8381101561075557808201518184015260208101905061073a565b50505050905090810190601f1680156107825780820380516001836020036101000a031916815260200191505b50858103825289818151815260200191508051906020019080838360005b838110156107bb5780820151818401526020810190506107a0565b50505050905090810190601f1680156107e85780820380516001836020036101000a031916815260200191505b509b50505050505050505050505060405180910390f35b610a7d6004803603608081101561081557600080fd5b810190808035906020019064010000000081111561083257600080fd5b82018360208201111561084457600080fd5b8035906020019184600183028401116401000000008311171561086657600080fd5b91908080601f016020809104026020016040519081016040528093929190818152602001838380828437600081840152601f19601f820116905080830192505050505050509192919290803590602001906401000000008111156108c957600080fd5b8201836020820111156108db57600080fd5b803590602001918460018302840111640100000000831117156108fd57600080fd5b91908080601f016020809104026020016040519081016040528093929190818152602001838380828437600081840152601f19601f8201169050808301925050505050505091929192908035906020019064010000000081111561096057600080fd5b82018360208201111561097257600080fd5b8035906020019184600183028401116401000000008311171561099457600080fd5b91908080601f016020809104026020016040519081016040528093929190818152602001838380828437600081840152601f19601f820116905080830192505050505050509192919290803590602001906401000000008111156109f757600080fd5b820183602082011115610a0957600080fd5b80359060200191846001830284011164010000000083111715610a2b57600080fd5b91908080601f016020809104026020016040519081016040528093929190818152602001838380828437600081840152601f19601f820116905080830192505050505050509192919290505050611b2c565b005b610aab60048036036020811015610a9557600080fd5b8101908080359060200190929190505050611dcf565b60405180806020018060200180602001848103845287818151815260200191508051906020019080838360005b83811015610af3578082015181840152602081019050610ad8565b50505050905090810190601f168015610b205780820380516001836020036101000a031916815260200191505b50848103835286818151815260200191508051906020019080838360005b83811015610b59578082015181840152602081019050610b3e565b50505050905090810190601f168015610b865780820380516001836020036101000a031916815260200191505b50848103825285818151815260200191508051906020019080838360005b83811015610bbf578082015181840152602081019050610ba4565b50505050905090810190601f168015610bec5780820380516001836020036101000a031916815260200191505b50965050505050505060405180910390f35b610cd560048036036080811015610c1457600080fd5b810190808035906020019092919080359060200190640100000000811115610c3b57600080fd5b820183602082011115610c4d57600080fd5b80359060200191846001830284011164010000000083111715610c6f57600080fd5b91908080601f016020809104026020016040519081016040528093929190818152602001838380828437600081840152601f19601f8201169050808301925050505050505091929192908035906020019092919080359060200190929190505050611ff7565b604051808215151515815260200191505060405180910390f35b610d3160048036036020811015610d0557600080fd5b81019080803573ffffffffffffffffffffffffffffffffffffffff1690602001909291905050506122ed565b005b610d3b61181f565b610dad576040517f08c379a00000000000000000000000000000000000000000000000000000000081526004018080602001828103825260208152602001807f4f776e61626c653a2063616c6c6572206973206e6f7420746865206f776e657281525060200191505060405180910390fd5b83600073ffffffffffffffffffffffffffffffffffffffff168173ffffffffffffffffffffffffffffffffffffffff161415610e34576040517f08c379a00000000000000000000000000000000000000000000000000000000081526004018080602001828103825260228152602001806127b86022913960400191505060405180910390fd5b610e4885600161237390919063ffffffff16565b610e50612678565b84816000018190525083816020018190525060018160600190151590811515815250506005600084815260200190815260200160002060050154816040018181525050806005600085815260200190815260200160002060070160008873ffffffffffffffffffffffffffffffffffffffff1673ffffffffffffffffffffffffffffffffffffffff1681526020019081526020016000206000820151816000019080519060200190610f039291906126a2565b506020820151816001019080519060200190610f209291906126a2565b506040820151816002015560608201518160030160006101000a81548160ff02191690831515021790555090505060016005600085815260200190815260200160002060050160008282540192505081905550505050505050565b60045481565b600085600073ffffffffffffffffffffffffffffffffffffffff168173ffffffffffffffffffffffffffffffffffffffff16141561100a576040517f08c379a00000000000000000000000000000000000000000000000000000000081526004018080602001828103825260228152602001806127b86022913960400191505060405180910390fd5b83600115156005600083815260200190815260200160002060070160003373ffffffffffffffffffffffffffffffffffffffff1673ffffffffffffffffffffffffffffffffffffffff16815260200190815260200160002060030160009054906101000a900460ff161515146110cb576040517f08c379a00000000000000000000000000000000000000000000000000000000081526004018080602001828103825260378152602001806128456037913960400191505060405180910390fd5b6110df33600161244e90919063ffffffff16565b611134576040517f08c379a00000000000000000000000000000000000000000000000000000000081526004018080602001828103825260238152602001806128006023913960400191505060405180910390fd5b61113c612678565b87816000018190525086816020018190525060056000878152602001908152602001600020600501548160400181815250506001600560008881526020019081526020016000206005016000828254019250508190555060405160200180807f7465616368657200000000000000000000000000000000000000000000000000815250600701905060405160208183030381529060405280519060200120856040516020018082805190602001908083835b6020831061121157805182526020820191506020810190506020830392506111ee565b6001836020036101000a0380198251168184511680821785525050505050509050019150506040516020818303038152906040528051906020012014156113265761126689600261237390919063ffffffff16565b806005600088815260200190815260200160002060080160008b73ffffffffffffffffffffffffffffffffffffffff1673ffffffffffffffffffffffffffffffffffffffff16815260200190815260200160002060008201518160000190805190602001906112d69291906126a2565b5060208201518160010190805190602001906112f39291906126a2565b506040820151816002015560608201518160030160006101000a81548160ff0219169083151502179055509050506114b6565b60405160200180807f73747564656e7400000000000000000000000000000000000000000000000000815250600701905060405160208183030381529060405280519060200120856040516020018082805190602001908083835b602083106113a45780518252602082019150602081019050602083039250611381565b6001836020036101000a0380198251168184511680821785525050505050509050019150506040516020818303038152906040528051906020012014156114b5576113f989600361237390919063ffffffff16565b806005600088815260200190815260200160002060090160008b73ffffffffffffffffffffffffffffffffffffffff1673ffffffffffffffffffffffffffffffffffffffff16815260200190815260200160002060008201518160000190805190602001906114699291906126a2565b5060208201518160010190805190602001906114869291906126a2565b506040820151816002015560608201518160030160006101000a81548160ff0219169083151502179055509050505b5b6001935050505095945050505050565b6114ce61181f565b611540576040517f08c379a00000000000000000000000000000000000000000000000000000000081526004018080602001828103825260208152602001807f4f776e61626c653a2063616c6c6572206973206e6f7420746865206f776e657281525060200191505060405180910390fd5b600073ffffffffffffffffffffffffffffffffffffffff166000809054906101000a900473ffffffffffffffffffffffffffffffffffffffff1673ffffffffffffffffffffffffffffffffffffffff167f8be0079c531659141344cd1fd0a4f28419497f9722a3daafe3b4186f6b6457e060405160405180910390a360008060006101000a81548173ffffffffffffffffffffffffffffffffffffffff021916908373ffffffffffffffffffffffffffffffffffffffff160217905550565b600086600115156005600083815260200190815260200160002060070160003373ffffffffffffffffffffffffffffffffffffffff1673ffffffffffffffffffffffffffffffffffffffff16815260200190815260200160002060030160009054906101000a900460ff161515146116c2576040517f08c379a00000000000000000000000000000000000000000000000000000000081526004018080602001828103825260378152602001806128456037913960400191505060405180910390fd5b6116d633600161244e90919063ffffffff16565b61172b576040517f08c379a00000000000000000000000000000000000000000000000000000000081526004018080602001828103825260238152602001806128006023913960400191505060405180910390fd5b611733612722565b86816000018190525084816080018181525050858160200181815250508381604001901515908115158152505080600560008b8152602001908152602001600020600a0160008a815260200190815260200160002060008201518160000190805190602001906117a49291906126a2565b506020820151816001015560408201518160020160006101000a81548160ff02191690831515021790555060608201518160030155608082015181600401559050506001925050509695505050505050565b60008060009054906101000a900473ffffffffffffffffffffffffffffffffffffffff16905090565b60008060009054906101000a900473ffffffffffffffffffffffffffffffffffffffff1673ffffffffffffffffffffffffffffffffffffffff1661186161252c565b73ffffffffffffffffffffffffffffffffffffffff1614905090565b6005602052806000526040600020600091509050806000018054600181600116156101000203166002900480601f0160208091040260200160405190810160405280929190818152602001828054600181600116156101000203166002900480156119295780601f106118fe57610100808354040283529160200191611929565b820191906000526020600020905b81548152906001019060200180831161190c57829003601f168201915b505050505090806001018054600181600116156101000203166002900480601f0160208091040260200160405190810160405280929190818152602001828054600181600116156101000203166002900480156119c75780601f1061199c576101008083540402835291602001916119c7565b820191906000526020600020905b8154815290600101906020018083116119aa57829003601f168201915b505050505090806002018054600181600116156101000203166002900480601f016020809104026020016040519081016040528092919081815260200182805460018160011615610100020316600290048015611a655780601f10611a3a57610100808354040283529160200191611a65565b820191906000526020600020905b815481529060010190602001808311611a4857829003601f168201915b505050505090806003018054600181600116156101000203166002900480601f016020809104026020016040519081016040528092919081815260200182805460018160011615610100020316600290048015611b035780601f10611ad857610100808354040283529160200191611b03565b820191906000526020600020905b815481529060010190602001808311611ae657829003601f168201915b5050505050908060040160009054906101000a900460ff16908060050154908060060154905087565b611b3461181f565b611ba6576040517f08c379a00000000000000000000000000000000000000000000000000000000081526004018080602001828103825260208152602001807f4f776e61626c653a2063616c6c6572206973206e6f7420746865206f776e657281525060200191505060405180910390fd5b611bae612753565b8481600001819052508381602001819052508281604001819052508181606001819052506001816080019015159081151581525050806005600060045481526020019081526020016000206000820151816000019080519060200190611c159291906126a2565b506020820151816001019080519060200190611c329291906126a2565b506040820151816002019080519060200190611c4f9291906126a2565b506060820151816003019080519060200190611c6c9291906126a2565b5060808201518160040160006101000a81548160ff02191690831515021790555060a0820151816005015560c0820151816006015590505060016004600082825401925050819055507f17bd20564888962589be0906f760255071a0c85d66584f4e1f6489591c14f83c8585600454604051808060200180602001848152602001838103835286818151815260200191508051906020019080838360005b83811015611d25578082015181840152602081019050611d0a565b50505050905090810190601f168015611d525780820380516001836020036101000a031916815260200191505b50838103825285818151815260200191508051906020019080838360005b83811015611d8b578082015181840152602081019050611d70565b50505050905090810190601f168015611db85780820380516001836020036101000a031916815260200191505b509550505050505060405180910390a15050505050565b6060806060600560008581526020019081526020016000206000018054600181600116156101000203166002900480601f016020809104026020016040519081016040528092919081815260200182805460018160011615610100020316600290048015611e7e5780601f10611e5357610100808354040283529160200191611e7e565b820191906000526020600020905b815481529060010190602001808311611e6157829003601f168201915b50505050509250600560008581526020019081526020016000206002018054600181600116156101000203166002900480601f016020809104026020016040519081016040528092919081815260200182805460018160011615610100020316600290048015611f2f5780601f10611f0457610100808354040283529160200191611f2f565b820191906000526020600020905b815481529060010190602001808311611f1257829003601f168201915b50505050509050600560008581526020019081526020016000206001018054600181600116156101000203166002900480601f016020809104026020016040519081016040528092919081815260200182805460018160011615610100020316600290048015611fe05780601f10611fb557610100808354040283529160200191611fe0565b820191906000526020600020905b815481529060010190602001808311611fc357829003601f168201915b505050505091508282829250925092509193909250565b600084600115156005600083815260200190815260200160002060070160003373ffffffffffffffffffffffffffffffffffffffff1673ffffffffffffffffffffffffffffffffffffffff16815260200190815260200160002060030160009054906101000a900460ff161515146120ba576040517f08c379a00000000000000000000000000000000000000000000000000000000081526004018080602001828103825260378152602001806128456037913960400191505060405180910390fd5b6120ce33600161244e90919063ffffffff16565b612123576040517f08c379a00000000000000000000000000000000000000000000000000000000081526004018080602001828103825260238152602001806128006023913960400191505060405180910390fd5b61212b612722565b85816000018190525083816080018181525050848160200181815250506001816040019015159081151581525050600081606001818152505060006005600089815260200190815260200160002060060154905081600560008a8152602001908152602001600020600a01600083815260200190815260200160002060008201518160000190805190602001906121c39291906126a2565b506020820151816001015560408201518160020160006101000a81548160ff02191690831515021790555060608201518160030155608082015181600401559050506001600560008a8152602001908152602001600020600601600082825401925050819055507f89f4edc142d57c1d29965512cac1cbfe9541efa20ff153a28760f1b5829acf0d878787846040518080602001858152602001848152602001838152602001828103825286818151815260200191508051906020019080838360005b838110156122a1578082015181840152602081019050612286565b50505050905090810190601f1680156122ce5780820380516001836020036101000a031916815260200191505b509550505050505060405180910390a160019350505050949350505050565b6122f561181f565b612367576040517f08c379a00000000000000000000000000000000000000000000000000000000081526004018080602001828103825260208152602001807f4f776e61626c653a2063616c6c6572206973206e6f7420746865206f776e657281525060200191505060405180910390fd5b61237081612534565b50565b61237d828261244e565b156123f0576040517f08c379a000000000000000000000000000000000000000000000000000000000815260040180806020018281038252601f8152602001807f526f6c65733a206163636f756e7420616c72656164792068617320726f6c650081525060200191505060405180910390fd5b60018260000160008373ffffffffffffffffffffffffffffffffffffffff1673ffffffffffffffffffffffffffffffffffffffff16815260200190815260200160002060006101000a81548160ff0219169083151502179055505050565b60008073ffffffffffffffffffffffffffffffffffffffff168273ffffffffffffffffffffffffffffffffffffffff1614156124d5576040517f08c379a00000000000000000000000000000000000000000000000000000000081526004018080602001828103825260228152602001806128236022913960400191505060405180910390fd5b8260000160008373ffffffffffffffffffffffffffffffffffffffff1673ffffffffffffffffffffffffffffffffffffffff16815260200190815260200160002060009054906101000a900460ff16905092915050565b600033905090565b600073ffffffffffffffffffffffffffffffffffffffff168173ffffffffffffffffffffffffffffffffffffffff1614156125ba576040517f08c379a00000000000000000000000000000000000000000000000000000000081526004018080602001828103825260268152602001806127da6026913960400191505060405180910390fd5b8073ffffffffffffffffffffffffffffffffffffffff166000809054906101000a900473ffffffffffffffffffffffffffffffffffffffff1673ffffffffffffffffffffffffffffffffffffffff167f8be0079c531659141344cd1fd0a4f28419497f9722a3daafe3b4186f6b6457e060405160405180910390a3806000806101000a81548173ffffffffffffffffffffffffffffffffffffffff021916908373ffffffffffffffffffffffffffffffffffffffff16021790555050565b60405180608001604052806060815260200160608152602001600081526020016000151581525090565b828054600181600116156101000203166002900490600052602060002090601f016020900481019282601f106126e357805160ff1916838001178555612711565b82800160010185558215612711579182015b828111156127105782518255916020019190600101906126f5565b5b50905061271e9190612792565b5090565b6040518060a00160405280606081526020016000815260200160001515815260200160008152602001600081525090565b6040518060e001604052806060815260200160608152602001606081526020016060815260200160001515815260200160008152602001600081525090565b6127b491905b808211156127b0576000816000905550600101612798565b5090565b9056fe414444524553532043414e4e4f5420424520544845205a45524f20414444524553534f776e61626c653a206e6577206f776e657220697320746865207a65726f2061646472657373444f4553204e4f54204841564520554e4956455253495459204f574e455220524f4c45526f6c65733a206163636f756e7420697320746865207a65726f2061646472657373444f4553204e4f542042454c4f4e4720544f2054484520554e4956455253495459204f574e455253204f5220495320494e414354495645a265627a7a7231582001105d10f13c33f8b6ed1612774c1cd0597873642cc7fdd12e246f43c2de39f064736f6c634300050c0032",
  "source": "pragma solidity ^0.5.0;\r\n\r\nimport \"openzeppelin-solidity/contracts/access/Roles.sol\";\r\nimport \"openzeppelin-solidity/contracts/ownership/Ownable.sol\";\r\n\r\n/*\r\nTo use with Remix:\r\nimport \"github.com/OpenZeppelin/openzeppelin-solidity/contracts/access/Roles.sol\";\r\nimport \"github.com/OpenZeppelin/zeppelin-solidity/contracts/ownership/Ownable.sol\";\r\n*/\r\n\r\ncontract EducationPlatform is Ownable {\r\n\r\n    using Roles for Roles.Role; // We want to use the Roles library\r\n    Roles.Role universityOwners; //Stores University owner Roles\r\n    Roles.Role teachers; // Stores teacher Roles\r\n    Roles.Role students; // Stores student Roles;\r\n\r\n    uint public universityIdGenerator;\r\n    mapping (uint => University) public universities; // Mapping to keep track of the Universities\r\n\r\n    struct University {\r\n        string name;\r\n        string description;\r\n        string website;\r\n        string phoneNumber;\r\n        bool open;\r\n        uint memberIdGenerator;\r\n        uint courseIdGenerator;\r\n        mapping (address => UniversityMember) owners;\r\n        mapping (address => UniversityMember) teachers;\r\n        mapping (address => UniversityMember) students;\r\n\r\n        mapping (uint => Course) courses; //Mappint to track all classes available for this University\r\n    }\r\n\r\n    struct UniversityMember {\r\n        string fullName;\r\n        string email;\r\n        uint id;\r\n        bool active;\r\n    }\r\n\r\n    struct Course {\r\n        string courseName;\r\n        uint cost;\r\n        bool active;\r\n        uint activeStudents;\r\n        uint seatsAvailable; //to simulate a student buying multiple seats for a course\r\n        mapping (uint => address) students; //Keeps a list of enrolled students in case we need to send a bulk msg.\r\n    }\r\n\r\n\r\n    // Events\r\n    event LogUniversityAdded(string name, string desc, uint universityId);\r\n    event LogCourseAdded(string _courseName, uint cost, uint _seatsAvailable, uint courseId);\r\n\r\n    // Modifiers\r\n    modifier validAddress(address _address) {\r\n        require(_address != address(0), \"ADDRESS CANNOT BE THE ZERO ADDRESS\");\r\n        _;\r\n    }\r\n\r\n    modifier ownerAtUniversity(uint _universityId) {\r\n        require((universities[_universityId].owners[msg.sender].active == true), \"DOES NOT BELONG TO THE UNIVERSITY OWNERS OR IS INACTIVE\");\r\n        require(universityOwners.has(msg.sender), \"DOES NOT HAVE UNIVERSITY OWNER ROLE\");\r\n        _;\r\n    }\r\n\r\n    modifier courseIsActive(uint _universityId, uint _courseId) {\r\n        require((universities[_universityId].courses[_courseId].active == true), \"COURSE IS INACTIVE - CONTACT UNIVERSITY OWNER\");\r\n        _;\r\n    }\r\n\r\n    // Add Universities\r\n    function addUniversity(string memory _name, string memory _description, string memory _website, string memory _phoneNumber)\r\n    public onlyOwner\r\n    {\r\n        University memory newUniversity;\r\n        newUniversity.name = _name;\r\n        newUniversity.description = _description;\r\n        newUniversity.website = _website;\r\n        newUniversity.phoneNumber = _phoneNumber;\r\n        newUniversity.open = true;\r\n        universities[universityIdGenerator] = newUniversity;\r\n        universityIdGenerator += 1;\r\n\r\n        emit LogUniversityAdded(_name, _description, universityIdGenerator);\r\n    }\r\n\r\n    // Add a Course\r\n    function addCourse(uint _universityId, string memory _courseName, uint _cost, uint _seatsAvailable) public\r\n    ownerAtUniversity(_universityId)\r\n    returns (bool)\r\n    {\r\n        Course memory newCourse;\r\n        newCourse.courseName = _courseName;\r\n        newCourse.seatsAvailable = _seatsAvailable;\r\n        newCourse.cost = _cost;\r\n        newCourse.active = true;\r\n        newCourse.activeStudents = 0;\r\n\r\n        uint courseId = universities[_universityId].courseIdGenerator;\r\n        universities[_universityId].courses[courseId] = newCourse;\r\n        universities[_universityId].courseIdGenerator += 1;\r\n\r\n        emit LogCourseAdded(_courseName, _cost, _seatsAvailable, courseId);\r\n        return true;\r\n    }\r\n\r\n    // Modify a Course\r\n    function updateCourse(uint _universityId, uint _courseId, string memory _courseName, uint _cost, uint _seatsAvailable, bool _isActive)\r\n    public\r\n    ownerAtUniversity(_universityId)\r\n    returns (bool)\r\n    {\r\n        Course memory newCourse;\r\n        newCourse.courseName = _courseName;\r\n        newCourse.seatsAvailable = _seatsAvailable;\r\n        newCourse.cost = _cost;\r\n        newCourse.active = _isActive;\r\n        universities[_universityId].courses[_courseId] = newCourse;\r\n        return true;\r\n    }\r\n\r\n\r\n    // Get University details\r\n    function getUniversity(uint _uniId)\r\n    public view\r\n    returns (string memory name, string memory description, string memory website)\r\n    {\r\n        name = universities[_uniId].name;\r\n        website = universities[_uniId].website;\r\n        description = universities[_uniId].description;\r\n        return (name, description, website);\r\n    }\r\n\r\n    /*\r\n    Roles and membership\r\n    */\r\n\r\n    function addUniversityOwnerRoles(address _ownerAddr, string memory _fullName, string memory _email, uint universityId)\r\n    public onlyOwner\r\n    validAddress(_ownerAddr)\r\n    {\r\n        universityOwners.add(_ownerAddr);\r\n\r\n        UniversityMember memory newUniversityMember;\r\n        newUniversityMember.fullName = _fullName;\r\n        newUniversityMember.email = _email;\r\n        newUniversityMember.active = true;\r\n        newUniversityMember.id = universities[universityId].memberIdGenerator;\r\n        universities[universityId].owners[_ownerAddr] = newUniversityMember;\r\n\r\n        universities[universityId].memberIdGenerator += 1;\r\n    }\r\n\r\n    function addUniversityMember(address _addr, string memory _name, string memory _email, uint _universityId, string memory _memberRole) public\r\n    validAddress(_addr)\r\n    ownerAtUniversity(_universityId)\r\n    returns (bool)\r\n    {\r\n        UniversityMember memory newUniversityMember;\r\n        newUniversityMember.fullName = _name;\r\n        newUniversityMember.email = _email;\r\n        newUniversityMember.id = universities[_universityId].memberIdGenerator;\r\n        universities[_universityId].memberIdGenerator += 1;\r\n\r\n        if (keccak256(abi.encodePacked(_memberRole)) == keccak256(abi.encodePacked(\"teacher\")))\r\n        {\r\n            teachers.add(_addr);\r\n            universities[_universityId].teachers[_addr] = newUniversityMember;\r\n        }\r\n        else if (keccak256(abi.encodePacked(_memberRole)) == keccak256(abi.encodePacked(\"student\")))\r\n        {\r\n            students.add(_addr);\r\n            universities[_universityId].students[_addr] = newUniversityMember;\r\n        }\r\n\r\n        return true;\r\n    }\r\n\r\n}",
  "sourcePath": "G:/Personal/ConsenSys/FinalProject/Test4/contracts/EducationPlatform.sol",
  "compiler": {
    "name": "solc",
    "version": "0.5.12+commit.7709ece9.Emscripten.clang"
  },
  "schemaVersion": "3.0.19",
  "updatedAt": "2019-11-25T04:57:26.278Z",
  "devdoc": {
    "methods": {
      "isOwner()": {
        "details": "Returns true if the caller is the current owner."
      },
      "owner()": {
        "details": "Returns the address of the current owner."
      },
      "renounceOwnership()": {
        "details": "Leaves the contract without owner. It will not be possible to call `onlyOwner` functions anymore. Can only be called by the current owner.     * NOTE: Renouncing ownership will leave the contract without an owner, thereby removing any functionality that is only available to the owner."
      },
      "transferOwnership(address)": {
        "details": "Transfers ownership of the contract to a new account (`newOwner`). Can only be called by the current owner."
      }
    }
  },
  "userdoc": {
    "methods": {}
  }
}